{
    "abi": [
        {
            "type": "constructor",
            "inputs": [
                {
                    "name": "_tokenGateway",
                    "type": "address",
                    "internalType": "address"
                },
                {
                    "name": "_feeToken",
                    "type": "address",
                    "internalType": "address"
                }
            ],
            "stateMutability": "nonpayable"
        },
        {
            "type": "function",
            "name": "bridgeTokens",
            "inputs": [
                {
                    "name": "token",
                    "type": "address",
                    "internalType": "address"
                },
                {
                    "name": "symbol",
                    "type": "string",
                    "internalType": "string"
                },
                {
                    "name": "amount",
                    "type": "uint256",
                    "internalType": "uint256"
                },
                {
                    "name": "recipient",
                    "type": "address",
                    "internalType": "address"
                },
                {
                    "name": "destChain",
                    "type": "bytes",
                    "internalType": "bytes"
                }
            ],
            "outputs": [],
            "stateMutability": "payable"
        },
        {
            "type": "function",
            "name": "feeToken",
            "inputs": [],
            "outputs": [
                {
                    "name": "",
                    "type": "address",
                    "internalType": "address"
                }
            ],
            "stateMutability": "view"
        },
        {
            "type": "function",
            "name": "tokenGateway",
            "inputs": [],
            "outputs": [
                {
                    "name": "",
                    "type": "address",
                    "internalType": "contract ITokenGateway"
                }
            ],
            "stateMutability": "view"
        }
    ],
    "bytecode": {
        "object": "0x60c060405234801561000f575f5ffd5b50604051610c48380380610c48833981810160405281019061003191906100fe565b8173ffffffffffffffffffffffffffffffffffffffff1660808173ffffffffffffffffffffffffffffffffffffffff16815250508073ffffffffffffffffffffffffffffffffffffffff1660a08173ffffffffffffffffffffffffffffffffffffffff1681525050505061013c565b5f5ffd5b5f73ffffffffffffffffffffffffffffffffffffffff82169050919050565b5f6100cd826100a4565b9050919050565b6100dd816100c3565b81146100e7575f5ffd5b50565b5f815190506100f8816100d4565b92915050565b5f5f60408385031215610114576101136100a0565b5b5f610121858286016100ea565b9250506020610132858286016100ea565b9150509250929050565b60805160a051610acf6101795f395f81816101c301526103ca01525f8181610143015281816101ff0152818161033a01526103ee0152610acf5ff3fe608060405260043610610033575f3560e01c80631d4ae23f14610037578063647846a514610053578063aa0d6e8e1461007d575b5f5ffd5b610051600480360381019061004c9190610688565b6100a7565b005b34801561005e575f5ffd5b506100676103c8565b6040516100749190610746565b60405180910390f35b348015610088575f5ffd5b506100916103ec565b60405161009e91906107ba565b60405180910390f35b8473ffffffffffffffffffffffffffffffffffffffff166323b872dd3330866040518463ffffffff1660e01b81526004016100e4939291906107e2565b6020604051808303815f875af1158015610100573d5f5f3e3d5ffd5b505050506040513d601f19601f82011682018060405250810190610124919061084c565b508473ffffffffffffffffffffffffffffffffffffffff1663095ea7b37f0000000000000000000000000000000000000000000000000000000000000000856040518363ffffffff1660e01b8152600401610180929190610877565b6020604051808303815f875af115801561019c573d5f5f3e3d5ffd5b505050506040513d601f19601f820116820180604052508101906101c0919061084c565b507f000000000000000000000000000000000000000000000000000000000000000073ffffffffffffffffffffffffffffffffffffffff1663095ea7b37f00000000000000000000000000000000000000000000000000000000000000007fffffffffffffffffffffffffffffffffffffffffffffffffffffffffffffffff6040518363ffffffff1660e01b815260040161025c929190610877565b6020604051808303815f875af1158015610278573d5f5f3e3d5ffd5b505050506040513d601f19601f8201168201806040525081019061029c919061084c565b505f6040518061012001604052808581526020015f8152602001866040516020016102c791906108f0565b6040516020818303038152906040528051906020012081526020015f151581526020018473ffffffffffffffffffffffffffffffffffffffff165f1b81526020018381526020015f67ffffffffffffffff16815260200134815260200160405180602001604052805f81525081525090507f000000000000000000000000000000000000000000000000000000000000000073ffffffffffffffffffffffffffffffffffffffff166386f28b7534836040518363ffffffff1660e01b81526004016103929190610a79565b5f604051808303818588803b1580156103a9575f5ffd5b505af11580156103bb573d5f5f3e3d5ffd5b5050505050505050505050565b7f000000000000000000000000000000000000000000000000000000000000000081565b7f000000000000000000000000000000000000000000000000000000000000000081565b5f604051905090565b5f5ffd5b5f5ffd5b5f73ffffffffffffffffffffffffffffffffffffffff82169050919050565b5f61044a82610421565b9050919050565b61045a81610440565b8114610464575f5ffd5b50565b5f8135905061047581610451565b92915050565b5f5ffd5b5f5ffd5b5f601f19601f8301169050919050565b7f4e487b71000000000000000000000000000000000000000000000000000000005f52604160045260245ffd5b6104c982610483565b810181811067ffffffffffffffff821117156104e8576104e7610493565b5b80604052505050565b5f6104fa610410565b905061050682826104c0565b919050565b5f67ffffffffffffffff82111561052557610524610493565b5b61052e82610483565b9050602081019050919050565b828183375f83830152505050565b5f61055b6105568461050b565b6104f1565b9050828152602081018484840111156105775761057661047f565b5b61058284828561053b565b509392505050565b5f82601f83011261059e5761059d61047b565b5b81356105ae848260208601610549565b91505092915050565b5f819050919050565b6105c9816105b7565b81146105d3575f5ffd5b50565b5f813590506105e4816105c0565b92915050565b5f67ffffffffffffffff82111561060457610603610493565b5b61060d82610483565b9050602081019050919050565b5f61062c610627846105ea565b6104f1565b9050828152602081018484840111156106485761064761047f565b5b61065384828561053b565b509392505050565b5f82601f83011261066f5761066e61047b565b5b813561067f84826020860161061a565b91505092915050565b5f5f5f5f5f60a086880312156106a1576106a0610419565b5b5f6106ae88828901610467565b955050602086013567ffffffffffffffff8111156106cf576106ce61041d565b5b6106db8882890161058a565b94505060406106ec888289016105d6565b93505060606106fd88828901610467565b925050608086013567ffffffffffffffff81111561071e5761071d61041d565b5b61072a8882890161065b565b9150509295509295909350565b61074081610440565b82525050565b5f6020820190506107595f830184610737565b92915050565b5f819050919050565b5f61078261077d61077884610421565b61075f565b610421565b9050919050565b5f61079382610768565b9050919050565b5f6107a482610789565b9050919050565b6107b48161079a565b82525050565b5f6020820190506107cd5f8301846107ab565b92915050565b6107dc816105b7565b82525050565b5f6060820190506107f55f830186610737565b6108026020830185610737565b61080f60408301846107d3565b949350505050565b5f8115159050919050565b61082b81610817565b8114610835575f5ffd5b50565b5f8151905061084681610822565b92915050565b5f6020828403121561086157610860610419565b5b5f61086e84828501610838565b91505092915050565b5f60408201905061088a5f830185610737565b61089760208301846107d3565b9392505050565b5f81519050919050565b5f81905092915050565b8281835e5f83830152505050565b5f6108ca8261089e565b6108d481856108a8565b93506108e48185602086016108b2565b80840191505092915050565b5f6108fb82846108c0565b915081905092915050565b61090f816105b7565b82525050565b5f819050919050565b61092781610915565b82525050565b61093681610817565b82525050565b5f81519050919050565b5f82825260208201905092915050565b5f6109608261093c565b61096a8185610946565b935061097a8185602086016108b2565b61098381610483565b840191505092915050565b5f67ffffffffffffffff82169050919050565b6109aa8161098e565b82525050565b5f61012083015f8301516109c65f860182610906565b5060208301516109d96020860182610906565b5060408301516109ec604086018261091e565b5060608301516109ff606086018261092d565b506080830151610a12608086018261091e565b5060a083015184820360a0860152610a2a8282610956565b91505060c0830151610a3f60c08601826109a1565b5060e0830151610a5260e0860182610906565b50610100830151848203610100860152610a6c8282610956565b9150508091505092915050565b5f6020820190508181035f830152610a9181846109b0565b90509291505056fea2646970667358221220fb209fcb4aaa4fb69cc5b1b4130edbc7f70d0b6d7cfc9b4d863d2fb2a113a5b564736f6c63430008210033",
        "linkReferences": {}
    },
    "methodIdentifiers": {
        "bridgeTokens(address,string,uint256,address,bytes)": "1d4ae23f",
        "feeToken()": "647846a5",
        "tokenGateway()": "aa0d6e8e"
    },
    "id": 26
}